:060000000A128A11FC2F18
:100F780083160313860183120313061183120313C6
:100F880006142930F2009630F1007F30F000F00BA3
:100F9800CB2FF10BCB2FF20BCB2F831203130610A1
:100FA8008312031386142930F2009630F1007F3043
:100FB800F000F00BDD2FF10BDD2FF20BDD2F83128C
:100FC800031386108312031306152930F200963096
:100FD800F1007F30F000F00BEF2FF10BEF2FF20B49
:100FE800EF2F831203130611BF2F0A128A1100284C
:080FF80083010A128A11BC2FCB
:02400E00FA3F77
:00000001FF
